:020000040000FA
:10000000000000EB240000EB2C008FE2000C90E8D5
:1000100000A08AE000B08BE001704AE20B005AE1D8
:100020000000001A1C0000EB0F00BAE818E04FE2D5
:10003000010013E303F0471013FF2FE10802000053
:10004000180200000030B0E30040B0E30050B0E31D
:100050000060B0E3102052E27800A128FCFFFF8A84
:10006000822EB0E13000A128003081451EFF2FE133
:1000700001C08FE21CFF2FE11FB5059886460FBC1B
:10008000009C02B07047000001C08FE21CFF2FE10E
:1000900030B47546AE4630BC70470000440000EBFB
:1000A0000210A0E1F1FFFFEB1CC09FE50FC08CE048
:1000B00001001CE30DE08F120FE0A0011CFF2FE1F7
:1000C00001C08FE21CFF2FE100F0A4F880000000C7
:1000D0007847C04603002DE9EAFFFFEB0300BDE8C7
:1000E000510000EB0C009FE50C109FE504209FE5FC
:1000F00008309FE51EFF2FE16000004060040040D3
:10010000600000400010A0E3060000EA0020A0E329
:10011000000000EA012082E284309FE5030052E102
:10012000FBFFFF3A011081E2000051E1F6FFFF3AC8
:100130001EFF2FE10F00A0E368109FE5080081E596
:10014000160000EA0100A0E358109FE5040081E5D5
:100150003700A0E3EAFFFFEB0200A0E344109FE5B5
:10016000040081E53700A0E3E5FFFFEB0400A0E316
:1001700030109FE5040081E53700A0E3E0FFFFEBCE
:100180000800A0E31C109FE50C0081E53700A0E308
:10019000DBFFFFEB0F00A0E308109FE50C0081E5FB
:1001A000E7FFFFEAFFFF0000008002E070477047B2
:1001B000704700000E50A0E1180000EB05E0A0E140
:1001C0000050B0E10D10A0E10A30A0E10700C0E34B
:1001D00000D0A0E160D08DE220402DE9C0FFFFEB10
:1001E0002040BDE80060A0E30070A0E30080A0E331
:1001F00000B0A0E30710C1E305C0A0E1C009ACE86E
:10020000C009ACE8C009ACE8C009ACE801D0A0E185
:100210001EFF2FE10400C046C0462000FFF758FF34
:1002200000009FE51EFF2FE10000004001C08FE2AB
:100230001CFF2FE101491820ABDFFEE7260002007A
:100240001EFF2FE15402000000000040E8040000FF
:040250004400000066
:0400000500000000F7
:00000001FF
